{
  "_format": "hh-sol-artifact-1",
  "contractName": "NFTMarketplace",
  "sourceName": "contracts/NFTMarketplace.sol",
  "abi": [
    {
      "inputs": [],
      "stateMutability": "nonpayable",
      "type": "constructor"
    },
    {
      "anonymous": false,
      "inputs": [
        {
          "indexed": true,
          "internalType": "address",
          "name": "owner",
          "type": "address"
        },
        {
          "indexed": true,
          "internalType": "address",
          "name": "approved",
          "type": "address"
        },
        {
          "indexed": true,
          "internalType": "uint256",
          "name": "tokenId",
          "type": "uint256"
        }
      ],
      "name": "Approval",
      "type": "event"
    },
    {
      "anonymous": false,
      "inputs": [
        {
          "indexed": true,
          "internalType": "address",
          "name": "owner",
          "type": "address"
        },
        {
          "indexed": true,
          "internalType": "address",
          "name": "operator",
          "type": "address"
        },
        {
          "indexed": false,
          "internalType": "bool",
          "name": "approved",
          "type": "bool"
        }
      ],
      "name": "ApprovalForAll",
      "type": "event"
    },
    {
      "anonymous": false,
      "inputs": [
        {
          "indexed": true,
          "internalType": "uint256",
          "name": "tokenId",
          "type": "uint256"
        },
        {
          "indexed": false,
          "internalType": "address",
          "name": "seller",
          "type": "address"
        },
        {
          "indexed": false,
          "internalType": "address",
          "name": "owner",
          "type": "address"
        },
        {
          "indexed": false,
          "internalType": "bool",
          "name": "sold",
          "type": "bool"
        }
      ],
      "name": "MarketItemCreated",
      "type": "event"
    },
    {
      "anonymous": false,
      "inputs": [
        {
          "indexed": true,
          "internalType": "address",
          "name": "from",
          "type": "address"
        },
        {
          "indexed": true,
          "internalType": "address",
          "name": "to",
          "type": "address"
        },
        {
          "indexed": true,
          "internalType": "uint256",
          "name": "tokenId",
          "type": "uint256"
        }
      ],
      "name": "Transfer",
      "type": "event"
    },
    {
      "inputs": [
        {
          "internalType": "address",
          "name": "to",
          "type": "address"
        },
        {
          "internalType": "uint256",
          "name": "tokenId",
          "type": "uint256"
        }
      ],
      "name": "approve",
      "outputs": [],
      "stateMutability": "nonpayable",
      "type": "function"
    },
    {
      "inputs": [
        {
          "internalType": "address",
          "name": "owner",
          "type": "address"
        }
      ],
      "name": "balanceOf",
      "outputs": [
        {
          "internalType": "uint256",
          "name": "",
          "type": "uint256"
        }
      ],
      "stateMutability": "view",
      "type": "function"
    },
    {
      "inputs": [
        {
          "internalType": "uint256",
          "name": "tokenId",
          "type": "uint256"
        }
      ],
      "name": "createMarketSale",
      "outputs": [],
      "stateMutability": "payable",
      "type": "function"
    },
    {
      "inputs": [
        {
          "internalType": "string",
          "name": "tokenURI",
          "type": "string"
        }
      ],
      "name": "createToken",
      "outputs": [
        {
          "internalType": "uint256",
          "name": "",
          "type": "uint256"
        }
      ],
      "stateMutability": "payable",
      "type": "function"
    },
    {
      "inputs": [],
      "name": "fetchItemsListed",
      "outputs": [
        {
          "components": [
            {
              "internalType": "uint256",
              "name": "tokenId",
              "type": "uint256"
            },
            {
              "internalType": "address payable",
              "name": "seller",
              "type": "address"
            },
            {
              "internalType": "address payable",
              "name": "owner",
              "type": "address"
            },
            {
              "internalType": "bool",
              "name": "sold",
              "type": "bool"
            }
          ],
          "internalType": "struct NFTMarketplace.MarketItem[]",
          "name": "",
          "type": "tuple[]"
        }
      ],
      "stateMutability": "view",
      "type": "function"
    },
    {
      "inputs": [],
      "name": "fetchMarketItems",
      "outputs": [
        {
          "components": [
            {
              "internalType": "uint256",
              "name": "tokenId",
              "type": "uint256"
            },
            {
              "internalType": "address payable",
              "name": "seller",
              "type": "address"
            },
            {
              "internalType": "address payable",
              "name": "owner",
              "type": "address"
            },
            {
              "internalType": "bool",
              "name": "sold",
              "type": "bool"
            }
          ],
          "internalType": "struct NFTMarketplace.MarketItem[]",
          "name": "",
          "type": "tuple[]"
        }
      ],
      "stateMutability": "view",
      "type": "function"
    },
    {
      "inputs": [],
      "name": "fetchMyNFTs",
      "outputs": [
        {
          "components": [
            {
              "internalType": "uint256",
              "name": "tokenId",
              "type": "uint256"
            },
            {
              "internalType": "address payable",
              "name": "seller",
              "type": "address"
            },
            {
              "internalType": "address payable",
              "name": "owner",
              "type": "address"
            },
            {
              "internalType": "bool",
              "name": "sold",
              "type": "bool"
            }
          ],
          "internalType": "struct NFTMarketplace.MarketItem[]",
          "name": "",
          "type": "tuple[]"
        }
      ],
      "stateMutability": "view",
      "type": "function"
    },
    {
      "inputs": [
        {
          "internalType": "uint256",
          "name": "tokenId",
          "type": "uint256"
        }
      ],
      "name": "getApproved",
      "outputs": [
        {
          "internalType": "address",
          "name": "",
          "type": "address"
        }
      ],
      "stateMutability": "view",
      "type": "function"
    },
    {
      "inputs": [],
      "name": "getListingPrice",
      "outputs": [
        {
          "internalType": "uint256",
          "name": "",
          "type": "uint256"
        }
      ],
      "stateMutability": "view",
      "type": "function"
    },
    {
      "inputs": [
        {
          "internalType": "address",
          "name": "owner",
          "type": "address"
        },
        {
          "internalType": "address",
          "name": "operator",
          "type": "address"
        }
      ],
      "name": "isApprovedForAll",
      "outputs": [
        {
          "internalType": "bool",
          "name": "",
          "type": "bool"
        }
      ],
      "stateMutability": "view",
      "type": "function"
    },
    {
      "inputs": [],
      "name": "name",
      "outputs": [
        {
          "internalType": "string",
          "name": "",
          "type": "string"
        }
      ],
      "stateMutability": "view",
      "type": "function"
    },
    {
      "inputs": [
        {
          "internalType": "uint256",
          "name": "tokenId",
          "type": "uint256"
        }
      ],
      "name": "ownerOf",
      "outputs": [
        {
          "internalType": "address",
          "name": "",
          "type": "address"
        }
      ],
      "stateMutability": "view",
      "type": "function"
    },
    {
      "inputs": [
        {
          "internalType": "address",
          "name": "from",
          "type": "address"
        },
        {
          "internalType": "address",
          "name": "to",
          "type": "address"
        },
        {
          "internalType": "uint256",
          "name": "tokenId",
          "type": "uint256"
        }
      ],
      "name": "safeTransferFrom",
      "outputs": [],
      "stateMutability": "nonpayable",
      "type": "function"
    },
    {
      "inputs": [
        {
          "internalType": "address",
          "name": "from",
          "type": "address"
        },
        {
          "internalType": "address",
          "name": "to",
          "type": "address"
        },
        {
          "internalType": "uint256",
          "name": "tokenId",
          "type": "uint256"
        },
        {
          "internalType": "bytes",
          "name": "_data",
          "type": "bytes"
        }
      ],
      "name": "safeTransferFrom",
      "outputs": [],
      "stateMutability": "nonpayable",
      "type": "function"
    },
    {
      "inputs": [
        {
          "internalType": "address",
          "name": "operator",
          "type": "address"
        },
        {
          "internalType": "bool",
          "name": "approved",
          "type": "bool"
        }
      ],
      "name": "setApprovalForAll",
      "outputs": [],
      "stateMutability": "nonpayable",
      "type": "function"
    },
    {
      "inputs": [
        {
          "internalType": "bytes4",
          "name": "interfaceId",
          "type": "bytes4"
        }
      ],
      "name": "supportsInterface",
      "outputs": [
        {
          "internalType": "bool",
          "name": "",
          "type": "bool"
        }
      ],
      "stateMutability": "view",
      "type": "function"
    },
    {
      "inputs": [],
      "name": "symbol",
      "outputs": [
        {
          "internalType": "string",
          "name": "",
          "type": "string"
        }
      ],
      "stateMutability": "view",
      "type": "function"
    },
    {
      "inputs": [
        {
          "internalType": "uint256",
          "name": "tokenId",
          "type": "uint256"
        }
      ],
      "name": "tokenURI",
      "outputs": [
        {
          "internalType": "string",
          "name": "",
          "type": "string"
        }
      ],
      "stateMutability": "view",
      "type": "function"
    },
    {
      "inputs": [
        {
          "internalType": "address",
          "name": "from",
          "type": "address"
        },
        {
          "internalType": "address",
          "name": "to",
          "type": "address"
        },
        {
          "internalType": "uint256",
          "name": "tokenId",
          "type": "uint256"
        }
      ],
      "name": "transferFrom",
      "outputs": [],
      "stateMutability": "nonpayable",
      "type": "function"
    },
    {
      "inputs": [
        {
          "internalType": "uint256",
          "name": "_listingPrice",
          "type": "uint256"
        }
      ],
      "name": "updateListingPrice",
      "outputs": [],
      "stateMutability": "payable",
      "type": "function"
    }
  ],
  "bytecode": "0x608060405266071afd498d00006009553480156200001c57600080fd5b50604080518082018252600781526676696467726f7760c81b6020808301918252835180850190945260048452635649444760e01b908401528151919291620000689160009162000099565b5080516200007e90600190602084019062000099565b5050600a80546001600160a01b03191633179055506200017c565b828054620000a7906200013f565b90600052602060002090601f016020900481019282620000cb576000855562000116565b82601f10620000e657805160ff191683800117855562000116565b8280016001018555821562000116579182015b8281111562000116578251825591602001919060010190620000f9565b506200012492915062000128565b5090565b5b8082111562000124576000815560010162000129565b600181811c908216806200015457607f821691505b602082108114156200017657634e487b7160e01b600052602260045260246000fd5b50919050565b611fcf806200018c6000396000f3fe60806040526004361061011f5760003560e01c806345f8fa80116100a0578063ae677aa311610064578063ae677aa314610308578063b88d4fde1461031b578063be9af5361461033b578063c87b56dd1461034e578063e985e9c51461036e57600080fd5b806345f8fa801461027e5780636352211e1461029357806370a08231146102b357806395d89b41146102d3578063a22cb465146102e857600080fd5b806312e85585116100e757806312e85585146101f7578063202e37401461021657806323b872dd1461022b57806342842e0e1461024b57806345576f941461026b57600080fd5b806301ffc9a71461012457806306fdde0314610159578063081812fc1461017b578063095ea7b3146101b35780630f08efe0146101d5575b600080fd5b34801561013057600080fd5b5061014461013f366004611a0e565b6103b7565b60405190151581526020015b60405180910390f35b34801561016557600080fd5b5061016e610409565b6040516101509190611a83565b34801561018757600080fd5b5061019b610196366004611a96565b61049b565b6040516001600160a01b039091168152602001610150565b3480156101bf57600080fd5b506101d36101ce366004611acb565b610528565b005b3480156101e157600080fd5b506101ea61063e565b6040516101509190611af5565b34801561020357600080fd5b506009545b604051908152602001610150565b34801561022257600080fd5b506101ea610779565b34801561023757600080fd5b506101d3610246366004611b67565b610949565b34801561025757600080fd5b506101d3610266366004611b67565b61097a565b610208610279366004611c2f565b610995565b34801561028a57600080fd5b506101ea6109cf565b34801561029f57600080fd5b5061019b6102ae366004611a96565b610b96565b3480156102bf57600080fd5b506102086102ce366004611c78565b610c0d565b3480156102df57600080fd5b5061016e610c94565b3480156102f457600080fd5b506101d3610303366004611c93565b610ca3565b6101d3610316366004611a96565b610cb2565b34801561032757600080fd5b506101d3610336366004611ccf565b610d2a565b6101d3610349366004611a96565b610d62565b34801561035a57600080fd5b5061016e610369366004611a96565b610e05565b34801561037a57600080fd5b50610144610389366004611d4b565b6001600160a01b03918216600090815260056020908152604080832093909416825291909152205460ff1690565b60006001600160e01b031982166380ac58cd60e01b14806103e857506001600160e01b03198216635b5e139f60e01b145b8061040357506301ffc9a760e01b6001600160e01b03198316145b92915050565b60606000805461041890611d7e565b80601f016020809104026020016040519081016040528092919081815260200182805461044490611d7e565b80156104915780601f1061046657610100808354040283529160200191610491565b820191906000526020600020905b81548152906001019060200180831161047457829003601f168201915b5050505050905090565b60006104a682610f7c565b61050c5760405162461bcd60e51b815260206004820152602c60248201527f4552433732313a20617070726f76656420717565727920666f72206e6f6e657860448201526b34b9ba32b73a103a37b5b2b760a11b60648201526084015b60405180910390fd5b506000908152600460205260409020546001600160a01b031690565b600061053382610b96565b9050806001600160a01b0316836001600160a01b031614156105a15760405162461bcd60e51b815260206004820152602160248201527f4552433732313a20617070726f76616c20746f2063757272656e74206f776e656044820152603960f91b6064820152608401610503565b336001600160a01b03821614806105bd57506105bd8133610389565b61062f5760405162461bcd60e51b815260206004820152603860248201527f4552433732313a20617070726f76652063616c6c6572206973206e6f74206f7760448201527f6e6572206e6f7220617070726f76656420666f7220616c6c00000000000000006064820152608401610503565b6106398383610f99565b505050565b6060600061064b60075490565b90506000808267ffffffffffffffff81111561066957610669611ba3565b6040519080825280602002602001820160405280156106bb57816020015b6040805160808101825260008082526020808301829052928201819052606082015282526000199092019101816106875790505b50905060005b838110156107715760006106d6826001611dcf565b6000818152600b602090815260409182902082516080810184528154815260018201546001600160a01b0390811693820193909352600282015492831693810193909352600160a01b90910460ff161515606083015285519293509185908790811061074457610744611de7565b602090810291909101015261075a600186611dcf565b94505050808061076990611dfd565b9150506106c1565b509392505050565b6060600061078660075490565b905060008060005b838110156107e95733600b60006107a6846001611dcf565b81526020810191909152604001600020600201546001600160a01b031614156107d7576107d4600184611dcf565b92505b806107e181611dfd565b91505061078e565b5060008267ffffffffffffffff81111561080557610805611ba3565b60405190808252806020026020018201604052801561085757816020015b6040805160808101825260008082526020808301829052928201819052606082015282526000199092019101816108235790505b50905060005b848110156109405733600b6000610875846001611dcf565b81526020810191909152604001600020600201546001600160a01b0316141561092e5760006108a5826001611dcf565b6000818152600b602090815260409182902082516080810184528154815260018201546001600160a01b0390811693820193909352600282015492831693810193909352600160a01b90910460ff161515606083015285519293509185908790811061091357610913611de7565b6020908102919091010152610929600186611dcf565b945050505b8061093881611dfd565b91505061085d565b50949350505050565b6109533382611007565b61096f5760405162461bcd60e51b815260040161050390611e18565b6106398383836110ed565b61063983838360405180602001604052806000815250610d2a565b60006109a5600780546001019055565b60006109b060075490565b90506109bc3382611289565b6109c681846113bc565b61040381611447565b606060006109dc60075490565b905060008060005b83811015610a3f5733600b60006109fc846001611dcf565b81526020810191909152604001600020600101546001600160a01b03161415610a2d57610a2a600184611dcf565b92505b80610a3781611dfd565b9150506109e4565b5060008267ffffffffffffffff811115610a5b57610a5b611ba3565b604051908082528060200260200182016040528015610aad57816020015b604080516080810182526000808252602080830182905292820181905260608201528252600019909201910181610a795790505b50905060005b848110156109405733600b6000610acb846001611dcf565b81526020810191909152604001600020600101546001600160a01b03161415610b84576000610afb826001611dcf565b6000818152600b602090815260409182902082516080810184528154815260018201546001600160a01b0390811693820193909352600282015492831693810193909352600160a01b90910460ff1615156060830152855192935091859087908110610b6957610b69611de7565b6020908102919091010152610b7f600186611dcf565b945050505b80610b8e81611dfd565b915050610ab3565b6000818152600260205260408120546001600160a01b0316806104035760405162461bcd60e51b815260206004820152602960248201527f4552433732313a206f776e657220717565727920666f72206e6f6e657869737460448201526832b73a103a37b5b2b760b91b6064820152608401610503565b60006001600160a01b038216610c785760405162461bcd60e51b815260206004820152602a60248201527f4552433732313a2062616c616e636520717565727920666f7220746865207a65604482015269726f206164647265737360b01b6064820152608401610503565b506001600160a01b031660009081526003602052604090205490565b60606001805461041890611d7e565b610cae338383611577565b5050565b600a546001600160a01b03163314610d255760405162461bcd60e51b815260206004820152603060248201527f4f6e6c79206d61726b6574706c616365206f776e65722063616e20757064617460448201526f32903634b9ba34b73390383934b1b29760811b6064820152608401610503565b600955565b610d343383611007565b610d505760405162461bcd60e51b815260040161050390611e18565b610d5c84848484611646565b50505050565b6000818152600b602052604090206001810180546002909201805460ff60a01b1933166001600160a81b031990911617600160a01b1790556001600160a01b0319821690556001600160a01b0316610dbe600880546001019055565b610dc93033846110ed565b600a546009546040516001600160a01b039092169181156108fc0291906000818181858888f19350505050158015610639573d6000803e3d6000fd5b6060610e1082610f7c565b610e765760405162461bcd60e51b815260206004820152603160248201527f45524337323155524953746f726167653a2055524920717565727920666f72206044820152703737b732bc34b9ba32b73a103a37b5b2b760791b6064820152608401610503565b60008281526006602052604081208054610e8f90611d7e565b80601f0160208091040260200160405190810160405280929190818152602001828054610ebb90611d7e565b8015610f085780601f10610edd57610100808354040283529160200191610f08565b820191906000526020600020905b815481529060010190602001808311610eeb57829003601f168201915b505050505090506000610f2660408051602081019091526000815290565b9050805160001415610f39575092915050565b815115610f6b578082604051602001610f53929190611e69565b60405160208183030381529060405292505050919050565b610f7484611679565b949350505050565b6000908152600260205260409020546001600160a01b0316151590565b600081815260046020526040902080546001600160a01b0319166001600160a01b0384169081179091558190610fce82610b96565b6001600160a01b03167f8c5be1e5ebec7d5bd14f71427d1e84f3dd0314c0f7b2291e5b200ac8c7c3b92560405160405180910390a45050565b600061101282610f7c565b6110735760405162461bcd60e51b815260206004820152602c60248201527f4552433732313a206f70657261746f7220717565727920666f72206e6f6e657860448201526b34b9ba32b73a103a37b5b2b760a11b6064820152608401610503565b600061107e83610b96565b9050806001600160a01b0316846001600160a01b031614806110b95750836001600160a01b03166110ae8461049b565b6001600160a01b0316145b80610f7457506001600160a01b0380821660009081526005602090815260408083209388168352929052205460ff16610f74565b826001600160a01b031661110082610b96565b6001600160a01b0316146111645760405162461bcd60e51b815260206004820152602560248201527f4552433732313a207472616e736665722066726f6d20696e636f72726563742060448201526437bbb732b960d91b6064820152608401610503565b6001600160a01b0382166111c65760405162461bcd60e51b8152602060048201526024808201527f4552433732313a207472616e7366657220746f20746865207a65726f206164646044820152637265737360e01b6064820152608401610503565b6111d1600082610f99565b6001600160a01b03831660009081526003602052604081208054600192906111fa908490611e98565b90915550506001600160a01b0382166000908152600360205260408120805460019290611228908490611dcf565b909155505060008181526002602052604080822080546001600160a01b0319166001600160a01b0386811691821790925591518493918716917fddf252ad1be2c89b69c2b068fc378daa952ba7f163c4a11628f55a4df523b3ef91a4505050565b6001600160a01b0382166112df5760405162461bcd60e51b815260206004820181905260248201527f4552433732313a206d696e7420746f20746865207a65726f20616464726573736044820152606401610503565b6112e881610f7c565b156113355760405162461bcd60e51b815260206004820152601c60248201527f4552433732313a20746f6b656e20616c7265616479206d696e746564000000006044820152606401610503565b6001600160a01b038216600090815260036020526040812080546001929061135e908490611dcf565b909155505060008181526002602052604080822080546001600160a01b0319166001600160a01b03861690811790915590518392907fddf252ad1be2c89b69c2b068fc378daa952ba7f163c4a11628f55a4df523b3ef908290a45050565b6113c582610f7c565b6114285760405162461bcd60e51b815260206004820152602e60248201527f45524337323155524953746f726167653a2055524920736574206f66206e6f6e60448201526d32bc34b9ba32b73a103a37b5b2b760911b6064820152608401610503565b600082815260066020908152604090912082516106399284019061195c565b60095434146114a45760405162461bcd60e51b8152602060048201526024808201527f5072696365206d75737420626520657175616c20746f206c697374696e6720706044820152637269636560e01b6064820152608401610503565b6040805160808101825282815233602080830182815230848601818152600060608701818152898252600b909552969096209451855590516001850180546001600160a01b039283166001600160a01b031990911617905594516002909401805492511515600160a01b026001600160a81b03199093169490951693909317179092556115329190836110ed565b60408051338152306020820152600081830152905182917fac1bd62278cac1e3927d9af6d75c2a00c32db78ed0bb3a721d009050f786b7e8919081900360600190a250565b816001600160a01b0316836001600160a01b031614156115d95760405162461bcd60e51b815260206004820152601960248201527f4552433732313a20617070726f766520746f2063616c6c6572000000000000006044820152606401610503565b6001600160a01b03838116600081815260056020908152604080832094871680845294825291829020805460ff191686151590811790915591519182527f17307eab39ab6107e8899845ad3d59bd9653f200f220920489ca2b5937696c31910160405180910390a3505050565b6116518484846110ed565b61165d84848484611751565b610d5c5760405162461bcd60e51b815260040161050390611eaf565b606061168482610f7c565b6116e85760405162461bcd60e51b815260206004820152602f60248201527f4552433732314d657461646174613a2055524920717565727920666f72206e6f60448201526e3732bc34b9ba32b73a103a37b5b2b760891b6064820152608401610503565b60006116ff60408051602081019091526000815290565b9050600081511161171f576040518060200160405280600081525061174a565b806117298461185e565b60405160200161173a929190611e69565b6040516020818303038152906040525b9392505050565b60006001600160a01b0384163b1561185357604051630a85bd0160e11b81526001600160a01b0385169063150b7a0290611795903390899088908890600401611f01565b602060405180830381600087803b1580156117af57600080fd5b505af19250505080156117df575060408051601f3d908101601f191682019092526117dc91810190611f3e565b60015b611839573d80801561180d576040519150601f19603f3d011682016040523d82523d6000602084013e611812565b606091505b5080516118315760405162461bcd60e51b815260040161050390611eaf565b805181602001fd5b6001600160e01b031916630a85bd0160e11b149050610f74565b506001949350505050565b6060816118825750506040805180820190915260018152600360fc1b602082015290565b8160005b81156118ac578061189681611dfd565b91506118a59050600a83611f71565b9150611886565b60008167ffffffffffffffff8111156118c7576118c7611ba3565b6040519080825280601f01601f1916602001820160405280156118f1576020820181803683370190505b5090505b8415610f7457611906600183611e98565b9150611913600a86611f85565b61191e906030611dcf565b60f81b81838151811061193357611933611de7565b60200101906001600160f81b031916908160001a905350611955600a86611f71565b94506118f5565b82805461196890611d7e565b90600052602060002090601f01602090048101928261198a57600085556119d0565b82601f106119a357805160ff19168380011785556119d0565b828001600101855582156119d0579182015b828111156119d05782518255916020019190600101906119b5565b506119dc9291506119e0565b5090565b5b808211156119dc57600081556001016119e1565b6001600160e01b031981168114611a0b57600080fd5b50565b600060208284031215611a2057600080fd5b813561174a816119f5565b60005b83811015611a46578181015183820152602001611a2e565b83811115610d5c5750506000910152565b60008151808452611a6f816020860160208601611a2b565b601f01601f19169290920160200192915050565b60208152600061174a6020830184611a57565b600060208284031215611aa857600080fd5b5035919050565b80356001600160a01b0381168114611ac657600080fd5b919050565b60008060408385031215611ade57600080fd5b611ae783611aaf565b946020939093013593505050565b602080825282518282018190526000919060409081850190868401855b82811015611b5a57815180518552868101516001600160a01b039081168887015286820151168686015260609081015115159085015260809093019290850190600101611b12565b5091979650505050505050565b600080600060608486031215611b7c57600080fd5b611b8584611aaf565b9250611b9360208501611aaf565b9150604084013590509250925092565b634e487b7160e01b600052604160045260246000fd5b600067ffffffffffffffff80841115611bd457611bd4611ba3565b604051601f8501601f19908116603f01168101908282118183101715611bfc57611bfc611ba3565b81604052809350858152868686011115611c1557600080fd5b858560208301376000602087830101525050509392505050565b600060208284031215611c4157600080fd5b813567ffffffffffffffff811115611c5857600080fd5b8201601f81018413611c6957600080fd5b610f7484823560208401611bb9565b600060208284031215611c8a57600080fd5b61174a82611aaf565b60008060408385031215611ca657600080fd5b611caf83611aaf565b915060208301358015158114611cc457600080fd5b809150509250929050565b60008060008060808587031215611ce557600080fd5b611cee85611aaf565b9350611cfc60208601611aaf565b925060408501359150606085013567ffffffffffffffff811115611d1f57600080fd5b8501601f81018713611d3057600080fd5b611d3f87823560208401611bb9565b91505092959194509250565b60008060408385031215611d5e57600080fd5b611d6783611aaf565b9150611d7560208401611aaf565b90509250929050565b600181811c90821680611d9257607f821691505b60208210811415611db357634e487b7160e01b600052602260045260246000fd5b50919050565b634e487b7160e01b600052601160045260246000fd5b60008219821115611de257611de2611db9565b500190565b634e487b7160e01b600052603260045260246000fd5b6000600019821415611e1157611e11611db9565b5060010190565b60208082526031908201527f4552433732313a207472616e736665722063616c6c6572206973206e6f74206f6040820152701ddb995c881b9bdc88185c1c1c9bdd9959607a1b606082015260800190565b60008351611e7b818460208801611a2b565b835190830190611e8f818360208801611a2b565b01949350505050565b600082821015611eaa57611eaa611db9565b500390565b60208082526032908201527f4552433732313a207472616e7366657220746f206e6f6e20455243373231526560408201527131b2b4bb32b91034b6b83632b6b2b73a32b960711b606082015260800190565b6001600160a01b0385811682528416602082015260408101839052608060608201819052600090611f3490830184611a57565b9695505050505050565b600060208284031215611f5057600080fd5b815161174a816119f5565b634e487b7160e01b600052601260045260246000fd5b600082611f8057611f80611f5b565b500490565b600082611f9457611f94611f5b565b50069056fea264697066735822122057ef0795822ac22925284d1a129adb6dec9c8cbf689366d7dce9635980e08fdf64736f6c63430008090033",
  "linkReferences": {},
  "deployedLinkReferences": {}
}